:100000000C9434000C9446000C9446000C9446006A
:100010000C9446000C9446000C9446000C94460048
:100020000C9446000C9446000C9446000C94460038
:100030000C9446000C9446000C9446000C94460028
:100040000C9446000C9446000C9446000C94460018
:100050000C9446000C9446000C9446000C94460008
:100060000C9446000C94460011241FBECFEFD8E03C
:10007000DEBFCDBF21E0A0E0B1E001C01D92A13103
:10008000B207E1F70E94A2020C94B8020C9400009F
:100090001092000188E290E09093020180930101A8
:1000A0008AE090E090930401809303018CE390E058
:1000B000909306018093050108950E94C201882350
:1000C00009F473C00E94B401853439F580910001B0
:1000D000882309F46AC082E0809300010E944F02E5
:1000E00080E20E94BB0185E40E94BB018DE40E9476
:1000F000BB0185E40E94BB0182E50E94BB0187E44D
:100100000E94BB0185E40E94BB018EE40E94BB01FA
:1001100083E40E94BB0189E543C0833521F58091CA
:100120000001882309F441C01092000180E00E9480
:100130004F0280E20E94BB0183E50E94BB0188E47C
:100140000E94BB0185E50E94BB0184E50E94BB01C2
:1001500084E40E94BB018FE40E94BB0187E50E94FA
:10016000BB018EE41DC0823501F582E08093000161
:100170000E944F0280E20E94BB0182E50E94BB0107
:1001800085E40E94BB0183E50E94BB0184E50E94D7
:10019000BB0181E40E94BB0182E50E94BB0184E5B2
:1001A0000E94BB0180E20C94BB0108958091000184
:1001B000882309F446C08230A9F48091010190910E
:1001C000020101979093020180930101892BC9F5E7
:1001D0000E94090288E290E090930201809301015D
:1001E00083E02DC08330A9F4809103019091040134
:1001F00001979093040180930301892B11F50E94CC
:1002000009028AE090E0909304018093030184E066
:1002100016C08430B1F480910501909106010197D8
:100220009093060180930501892B59F40E940902DD
:100230008CE390E0909306018093050182E0809327
:1002400000010895FC01862F41110CC0918121E02D
:1002500030E0062E01C0220F0A94EAF720952923E8
:1002600021830CC0413051F4DF019E9121E030E048
:1002700001C0220F6A95EAF7922B9C93BF01089563
:10028000FB01DB0111972C9130E0082E02C035955F
:1002900027950A94E2F720FF10C0908121E030E01A
:1002A000082E01C0220F0A94EAF7442319F0922B7A
:1002B000908308952095292320830895FB01319789
:1002C00040813197208150E0082E02C05595479516
:1002D0000A94E2F740FD08C030E002C0359527954A
:1002E0008A95E2F7922F9170892F0895FB01DB0127
:1002F00011972C9130E0082E02C0359527950A946D
:10030000E2F720FF0FC0208130E0082E02C03595B3
:1003100027950A94E2F720FD02C041E001C040E0C9
:100320000C9440010895FC01A081B1812E9181E0DF
:1003300090E0028002C0880F991F0A94E2F780952E
:1003400082238C9311821082089587E68093C400E3
:100350001092C50080E28093C00086E08093C200C6
:1003600088E18093C10008958091C00087FFFCCF91
:100370008091C60008959091C00095FFFCCF8093B6
:10038000C60008958091C000881F8827881F08959F
:100390001092100141E065E08BE290E00E942201A2
:1003A00060930701709308018093090141E066E0C2
:1003B0008BE290E00E94220160930D0170930E0188
:1003C00080930F0141E067E08BE290E00E94220100
:1003D00060930A0170930B0180930C0160910701F7
:1003E000709108018091090140E00E9440016091F4
:1003F0000D0170910E0180910F0140E00E944001BB
:1004000060910A0170910B0180910C0140E00C9405
:10041000400180911001823099F483E080931001B3
:1004200060910701709108018091090140E00E94EC
:10043000400160910D0170910E0180910F0114C077
:100440008330A9F484E08093100160910D017091D4
:100450000E0180910F0140E00E94400160910A016D
:1004600070910B0180910C0141E00C9440018430AB
:10047000A9F460910A0170910B0180910C0140E098
:100480000E9440016091070170910801809109016B
:1004900041E00E94400182E0809310010895809322
:1004A0001001811102C00C94C801823089F460915E
:1004B0000701709108018091090141E00E9440010B
:1004C00060910D0170910E0180910F0140E012C00A
:1004D0008330D1F460910701709108018091090186
:1004E00040E00E94400160910D0170910E018091E9
:1004F0000F0141E00E94400160910A0170910B01DF
:1005000080910C0140E01BC08430D9F46091070158
:10051000709108018091090140E00E9440016091C2
:100520000D0170910E0180910F0140E00E94400189
:1005300060910A0170910B0180910C0141E00C94D3
:10054000400108950E94A5010E9448000E94C80130
:100550000E945D000E945D000E94D6002FEF81EE98
:1005600094E0215080409040E1F700C00000F2CFBD
:04057000F894FFCF2D
:00000001FF
