:100000000C9434000C940B020C9451000C9451008D
:100010000C9451000C9451000C9451000C9451001C
:100020000C9451000C9451000C9451000C94570600
:100030000C9451000C9451000C9451000C945100FC
:100040000C9451000C9451000C9421050C9449051A
:100050000C9451000C9451000C9451000C945100DC
:100060000C9451000C94510011241FBECFEFD8E026
:10007000DEBFCDBF11E0A0E0B1E0E6EAF1E102C0F1
:1000800005900D92A632B107D9F722E0A6E2B1E0C1
:1000900001C01D92AC35B207E1F70E9498080C949C
:1000A000D1080C94000080912A0190912B01803599
:1000B000910539F482E08093290162E086E391E0C2
:1000C0000EC08436910571F481E08093290163E0CC
:1000D00086E391E00E94800461E08CE291E00E945E
:1000E00080041BC0843B910529F483E0809329019F
:1000F00062E0F3CF883C910581F41092290163E01E
:100100008CE291E00E94800461E086E391E00E942D
:10011000800410922B0110922A0180912A01909163
:100120002B01019690932B0180932A010895CF9281
:10013000EF92FF920F9387E0C82E9BE2E92EF12CFD
:1001400006E02BE230E045E06BE270E086E391E010
:100150000E94730422E0C22E38E2E32EF12C03E069
:1001600028E230E044E06BE270E08CE291E00E9433
:10017000730484E0809329010F91FF90EF90CF905A
:100180000C94DF0590912901943079F0811105C01C
:10019000913059F484EB90E004C0911106C080E5E1
:1001A00090E090932B0180932A01089560E086E30C
:1001B00091E00E94800460E08CE291E00E94800463
:1001C00084E080932901809128010C943E061092CE
:1001D000290188EC90E090932B0180932A0163E53C
:1001E00070E084E10E9439068093280108950F93FE
:1001F0001F93811115C00091360110913701209194
:1002000038013091390140913A0150913B016091A0
:100210003C0170913D0180913E0190913F0114C0DD
:1002200000912C0110912D0120912E0130912F0170
:100230004091300150913101609132017091330150
:1002400080913401909135010E9409051F910F9111
:10025000089580E00E94640468E072E082E10E94F8
:10026000340680934901089590915001913069F0CE
:1002700020F0923009F45CC00895813011F410929E
:100280004E0181E08093500128C081116AC08091A5
:100290008B010E94310725E0829FC00111248D97B8
:1002A000E4F080918B010E94310725E0829FC0011C
:1002B0001124853B9105ACF082E08093500161E010
:1002C00080914E010E94E30380934E0162EB71E046
:1002D00084E20E94340680934F0180918B010C943C
:1002E0003E0780918B010E94310725E0829FC0016B
:1002F0001124843B9105ACF580918B010E9431075C
:1003000025E0829FC00111248D975CF182E08093EB
:10031000500162EB71E084E20E94340680934F0149
:1003200060E080914E010E94E30380934E010895A6
:10033000813051F48093500180918B010E943E07DF
:1003400080914F010C943E06823059F41092500176
:1003500080914E010E941E04682F8EE691E00C945D
:100360009803089582E00C943401CF93C82F811133
:1003700012C081E591E00E94D70380934D010E9455
:10038000330480934E010E94010460934A017093EC
:100390004B0180934C0160914A0170914B01809117
:1003A0004C010E9418048823E1F08AE491E00E9445
:1003B0000E04811109C0C23000F581E00E9464047E
:1003C00069E271E082E108C0C230B8F481E00E94C5
:1003D000640469E271E086E30E9434068093490177
:1003E0000CC06FEF71E084E20E94340680934901F3
:1003F00081E591E0CF910C94C203CF91089581E5FE
:1004000091E00E947903811102C00C94B501089516
:1004100081E00C94B5011F920F920FB60F92112438
:100420002F933F934F935F936F937F938F939F93FC
:10043000AF93BF93EF93FF93109247011092460141
:1004400080914601833014F5823028F48AE08A9541
:10045000F1F700C004C085E18A95F1F700006091D2
:10046000430170914401809145010E942C039091B9
:100470004701882311F09F5F01C09150909347017D
:10048000809146018F5F80934601DACF80914701CA
:10049000181694F480914801813011F56091400163
:1004A00070914101809142010E94440381E00E94C9
:1004B00034011092480114C0882391F080914801C2
:1004C00081110EC060914001709141018091420103
:1004D0000E94440380E00E94340181E0809348013F
:1004E000E09AFF91EF91BF91AF919F918F917F9192
:1004F0006F915F914F913F912F910F900FBE0F9091
:100500001F9018950E94DF050E944F048CE891E02F
:100510000E9473038EE691E00E9473030E94FD0621
:1005200080938B01E9E6F0E080818D7F808380817C
:1005300081608083E89A40E062E08BE290E00E9474
:10054000F00260934301709344018093450141E0C0
:1005500065E085E290E00E94F002609340017093B4
:1005600041018093420181E0809348011092500143
:1005700008958EE691E00E94790391E0892708951D
:10058000CF930E94B9028823E1F38EE691E00E94A6
:10059000D703C82F8EE691E00E94C2038C2FCF9123
:1005A0000895CF93DF931F92CDB7DEB7682F81E513
:1005B00091E069830E9479036981882351F081E584
:1005C00091E00E94980380E00F90DF91CF910C940E
:1005D000B50181E591E00F90DF91CF910C949803E4
:1005E000FC01862F41110CC0918121E030E0062EE4
:1005F00001C0220F0A94EAF72095292321830CC019
:10060000413051F4DF019E9121E030E001C0220F22
:100610006A95EAF7922B9C93BF010895FB01DB01D9
:1006200011972C9130E0082E02C0359527950A9439
:10063000E2F720FF10C0908121E030E0082E01C0D9
:10064000220F0A94EAF7442319F0922B908308951D
:100650002095292320830895FB013197408131970C
:10066000208150E0082E02C0559547950A94E2F784
:1006700040FD08C030E002C0359527958A95E2F725
:10068000922F9170892F0895FB01DB0111972C9116
:1006900030E0082E02C0359527950A94E2F720FF36
:1006A0000FC0208130E0082E02C0359527950A94AE
:1006B000E2F720FD02C041E001C040E00C940E03CF
:1006C0000895FC01A081B1812E9181E090E002802B
:1006D00002C0880F991F0A94E2F7809582238C93B9
:1006E000118210820895FC01128E118E148E138EC9
:1006F0000895FC0181E0418D528D238D348D421788
:10070000530709F080E00895FC01438D548D218D3D
:10071000328D4831510521F481E0232B41F006C090
:100720004F5F5F4F81E02417350709F080E008959F
:10073000EF92FF921F93CF93DF931F92CDB7DEB757
:100740007C011FB7F89469830E9484036981811139
:1007500011C0F701838D948DE80FF91F60838831F4
:10076000910521F4F701148E138E04C00196F70150
:10077000948F838F1FBF0F90DF91CF911F91FF90B8
:10078000EF900895FC014FB7F894818D928D238DE1
:10079000348D8217930729F08831910521F4128E48
:1007A000118E4FBF08950196928F818FFACF2FB788
:1007B000F894DC015996ED91FC915A97E80FF91FD6
:1007C00080812FBF0895982F97709530C0F441E035
:1007D000490F887F482B892F90E027E030E0281BC5
:1007E000390B81E090E0022E01C0880F0A94EAF7ED
:1007F000611103C0809584230895842B089580E0BF
:100800000895982F977020E830E002C0359527951D
:100810009A95E2F7682F70E8822F0895FC012181F4
:100820009081922381E009F480E026952183089548
:1008300091E0781301C090E0892F0895982F20E06F
:1008400031E0F9018E2F821B41914913FBCF843295
:1008500041F096EE980F9B3010F48A5E08958F5BFE
:10086000089580E20895813434F0992787FD9095AA
:10087000815491090DC0803249F090ED980F9A3063
:1008800060F4992787FD9095469702C084E290E036
:10089000FC01E050FF4F8081089580E00895239A85
:1008A0002B98E0EBF0E080818F7B808380818260F9
:1008B0008083E1EBF0E08081846080831092B2005D
:1008C00087E28093B3000895882321F08091B000DF
:1008D000806406C01092B2002B988091B0008F7B8C
:1008E0008093B0000895CF92EF92FF920F93FC0196
:1008F00011860E9456070F91FF90EF90CF900895B8
:10090000EF920F931F93CF93DF93EC0169876111EF
:100910000DC0E12C088119812A813B814C815D81C8
:100920006E817F8188850E94D4070EC0613039F5C1
:10093000E12C088119812A813B814C815D816E8186
:100940007F8188850E949207EE24E39408811981B3
:100950002A813B814C815D816E817F8188850E94E7
:10096000D40792E0E92E088119812A813B814C81CC
:100970005D816E817F8188850E94D40744C062308A
:10098000D1F4E12C088119812A813B814C815D8160
:100990006E817F8188850E94D407EE24E3940881CC
:1009A00019812A813B814C815D816E817F8188859F
:1009B0000E949207D6CF633031F5E12C088119816E
:1009C0002A813B814C815D816E817F8188850E9477
:1009D000D407EE24E394088119812A813B814C815C
:1009E0005D816E817F8188850E94D40782E0E82E38
:1009F000088119812A813B814C815D816E817F81D3
:100A000088850E949207DF91CF911F910F91EF90FF
:100A100008950F931F93CF93DF93CDB7DEB72A9737
:100A20000FB6F894DEBF0FBECDBF892F2A960FB642
:100A3000F894DEBF0FBECDBFDF91CF911F910F9114
:100A400008951F920F920FB60F9211242F933F9388
:100A50004F935F936F937F938F939F93AF93BF93C6
:100A6000EF93FF936091C60086EC91E00E9498039B
:100A7000FF91EF91BF91AF919F918F917F916F9176
:100A80005F914F913F912F910F900FBE0F901F904C
:100A900018951F920F920FB60F9211242F933F9328
:100AA0004F935F936F937F938F939F93AF93BF9376
:100AB000EF93FF9389EA91E00E94790381110BC0C3
:100AC00089EA91E00E94D7038093C60089EA91E009
:100AD0000E94C20305C08091C1008F7D8093C10038
:100AE000FF91EF91BF91AF919F918F917F916F9106
:100AF0005F914F913F912F910F900FBE0F901F90DC
:100B0000189587E68093C4001092C50080E2809318
:100B1000C00086E08093C20088E98093C10086EC23
:100B200091E00E94730389EA91E00C94730389EACF
:100B300091E00E9479038111FACF1092C4001092C3
:100B4000C5001092C0001092C2001092C10008951A
:100B5000CF9386EC91E00E9479038111FACF86EC65
:100B600091E00E94D703C82F86EC91E00E94C20357
:100B70008C2FCF910895CF93DF93C82F89EA91E00E
:100B80000E9484038111FACF89EA91E00E947903DF
:100B9000D82F6C2F89EA91E00E949803DD2329F079
:100BA0008091C10080628093C100DF91CF91089550
:100BB00089EA91E00E94790391E089270895809164
:100BC0006F008D7F80936F00109280008BE0809388
:100BD000810081EE94E090938900809388001092C8
:100BE00085001092840010925B02E5EEF1E0108225
:100BF000369682E0ED35F807D1F70895109285001A
:100C00001092840090916F00926090936F00909189
:100C10008100936090938100E5EEF1E020E030E008
:100C2000DF0112979C91911117C09081911114C00E
:100C300096E0929FF001939FF00D1124ED51FE4F2D
:100C4000618383835583448380915B028F5F8093AC
:100C50005B026283822F08952F5F3F4F36962431C7
:100C60003105F1F68FEF0895AB01682F81E00C9408
:100C7000FE05AB01682F80E00C94FE0596E089022A
:100C8000F0011124ED51FE4F128280915B028150E0
:100C900080935B0281110AC080916F008D7F8093E9
:100CA0006F00809181008C7F8093810008951F9256
:100CB0000F920FB60F921124DF92EF92FF920F93D3
:100CC0001F932F933F934F935F936F937F938F93D4
:100CD0009F93AF93BF93CF93DF93EF93FF931092C4
:100CE00085001092840006EE11E085EEE82E81E08A
:100CF000F82EC4EED1E0D12C80915B028823D1F193
:100D0000FE0131978081F70181111FC08081882306
:100D100031F1888181508883811121C0F80180815F
:100D2000EB81FC81813029F409958D2D0E943E06CE
:100D300016C0823030F00995F8018081815080839F
:100D400001C00995F701808109C08081882339F0AD
:100D5000F8018081882319F088818F5F8883D3947C
:100D60000A5F1F4FF6E0EF0EF11C269684E1D812C1
:100D7000C3CF06C0D11004C0109285001092840029
:100D8000FF91EF91DF91CF91BF91AF919F918F91A3
:100D90007F916F915F914F913F912F911F910F9193
:100DA000FF90EF90DF900F900FBE0F901F9018955F
:100DB0000F931F93CF93DF9380916F008D7F80936C
:100DC0006F0003EE11E0C0E0D0E080915B0290E0A4
:100DD000C817D9075CF4F8018081811103C08C2FFA
:100DE0000E943E0621960A5F1F4FEFCF10925B02D2
:100DF000DF91CF911F910F9108951092850010926D
:100E0000840080916F00826080936F0080918100E8
:100E1000836080938100E5EEF1E080E090E0DF0107
:100E200012972C91211116C02081211113C026E0A8
:100E3000289FF001299FF00D1124ED51FE4F91E004
:100E400090839383118290915B029F5F90935B02EA
:100E500012820895019636968431910501F78FEF3D
:100E6000089596E08902F0011124ED51FE4F808132
:100E7000882311F08181089580E0089596E0890229
:100E8000F0011124ED51FE4F8081882319F0118269
:100E900081E08283089596E08902F0011124ED51EA
:100EA000FE4F80818111128208950895AF92BF9202
:100EB000CF92EF92FF920F93CF93DF93EC01CB0190
:100EC000642F590141E00E94F002688379838A838C
:100ED00041E0602FC5010E94F0026B837C838D830B
:100EE00041E06C2DC7010E94F0026E837F838887EA
:100EF000688179818A8140E00E940E036B817C8148
:100F00008D8140E00E940E036E817F81888540E0E4
:100F1000DF91CF910F91FF90EF90CF90BF90AF9066
:100F20000C940E03EF920F931F93CF93DF93CDB7E3
:100F3000DEB729970FB6F894DEBF0FBECDBF098389
:100F40001A832B833C834D835E836F8378878987E5
:100F50008E2DE11004C069817A818B810BC08130B4
:100F600021F46C817D818E8105C0823089F46F818E
:100F70007885898541E029960FB6F894DEBF0FBECB
:100F8000CDBFDF91CF911F910F91EF900C940E0385
:100F900029960FB6F894DEBF0FBECDBFDF91CF917B
:100FA0001F910F91EF900895EF920F931F93CF939E
:100FB000DF93CDB7DEB729970FB6F894DEBF0FBE2B
:100FC000CDBF09831A832B833C834D835E836F835C
:100FD000788789878E2DE11004C069817A818B81A1
:100FE0000BC0813021F46C817D818E8105C08230FF
:100FF00089F46F817885898540E029960FB6F89449
:10100000DEBF0FBECDBFDF91CF911F910F91EF904B
:101010000C940E0329960FB6F894DEBF0FBECDBF19
:10102000DF91CF911F910F91EF900895EF920F9361
:101030001F93CF93DF93CDB7DEB729970FB6F89400
:10104000DEBF0FBECDBF09831A832B833C834D8344
:101050005E836F83788789878E2DE11004C0698154
:101060007A818B810BC0813021F46C817D818E81EE
:1010700005C0823081F46F817885898529960FB605
:10108000F894DEBF0FBECDBFDF91CF911F910F91BE
:10109000EF900C94440329960FB6F894DEBF0FBE70
:1010A000CDBFDF91CF911F910F91EF900895EF92F7
:1010B0000F931F93CF93DF93CDB7DEB729970FB66A
:1010C000F894DEBF0FBECDBF09831A832B833C8308
:1010D0004D835E836F83788789878E2DE11004C0EE
:1010E00069817A818B810BC0813021F46C817D8193
:1010F0008E8105C0823081F46F817885898529963B
:101100000FB6F894DEBF0FBECDBFDF91CF911F9118
:101110000F91EF900C942C0329960FB6F894DEBF34
:101120000FBECDBFDF91CF911F910F91EF9008952A
:101130000E9497000E9482020E94810578940E947A
:10114000C002809327010E94BB058091270186344D
:1011500081F40E94C002809327010E94BB05809108
:101160002701813411F480E001C081E00E94C200B7
:10117000E6CF823551F480E00E94F700809326018B
:101180008111DDCF0E94E700DACF8834C1F680E01C
:101190000E94F70080932601882389F20E94D600DE
:0611A000CECFF894FFCF52
:1011A6004284A4830124C3040274A344C282E36478
:1011B600D443038123146394B4C4FD7D3D1D0D0502
:0611C60085C5E5F55500AA
:00000001FF
