:100000000C9434000C9456020C9451000C94510042
:100010000C9451000C9451000C9451000C9451001C
:100020000C9451000C9451000C9451000C94A906AE
:100030000C9451000C9451000C9451000C945100FC
:100040000C9451000C9451000C9473050C949B0576
:100050000C9451000C9451000C9451000C945100DC
:100060000C9451000C94510011241FBECFEFD8E026
:10007000DEBFCDBF11E0A0E0B1E0E0E3F3E102C0FC
:1000800005900D92A635B107D9F712E0A6E5B1E0CB
:1000900001C01D92AA38B107E1F70E94EA080C944A
:1000A00096090C940000809156019091570180357B
:1000B000910539F482E08093580162E089E591E08E
:1000C0000EC08436910571F481E08093580163E09D
:1000D00089E591E00E94D20461E083E691E00E940C
:1000E000D2041BC0843B910529F483E0809358011E
:1000F00062E0F3CF883C910581F41092580163E0EF
:1001000083E691E00E94D20461E089E591E00E94DB
:10011000D20410925701109256018091560190918D
:100120005701019690935701809356010895CF92FD
:10013000EF92FF920F9387E0C82E9BE2E92EF12CFD
:1001400006E02BE230E045E06BE270E089E591E00B
:100150000E94C50422E0C22E38E2E32EF12C03E017
:1001600028E230E044E06BE270E083E691E00E9438
:10017000C50484E0809358010F91FF90EF90CF90D9
:100180000C94310690915801943079F0811105C09A
:10019000913059F484EB90E004C0911106C080E5E1
:1001A00090E09093570180935601089560E089E5AF
:1001B00091E00E94D20460E083E691E00E94D204C4
:1001C00084E08093580180916D010C949006109208
:1001D000580188EC90E0909357018093560163E5B5
:1001E00070E08AE00E94860680936D0108950F9367
:1001F0001F93811115C00091590110915A0120914E
:100200005B0130915C0140915D0150915E01609114
:100210005F0170916001809161019091620114C051
:100220000091630110916401209165013091660194
:1002300040916701509168016091690170916A0174
:1002400080916B0190916C010E945B051F910F9151
:100250000895CF93DF93EC0102C00E940D068991AF
:100260008111FBCFDF91CF9108958F929F92BF9222
:10027000CF92DF92EF92FF920F931F93CF93DF9372
:100280001F92CDB7DEB77C018C01812C912CC62E3C
:10029000D12C69830E94FA05B82E992787FD909585
:1002A0000E948B096981892B61F08C149D0449F0AF
:1002B000F801B1928F01FFEF8F1A9F0A8C149D04F1
:1002C00041F7F701E60FF11D1082C4010F90DF9195
:1002D000CF911F910F91FF90EF90DF90CF90BF9043
:1002E0009F908F90089580E00E94B60461ED71E0C8
:1002F00082E10E948B068093D6010895CF93C82F88
:10030000811112C085EB91E00E9425048093D201F7
:100310000E948504809378010E944F046093D3016A
:100320007093D4018093D5016091D3017091D40171
:100330008091D5010E9466048823E1F083ED91E06D
:100340000E945C04811109C0C23000F581E00E9466
:10035000B60463E771E082E108C0C230B8F481E01E
:100360000E94B60463E771E086E30E948B068093E7
:10037000D6010CC068EC71E084E20E948B06809389
:10038000D60185EB91E0CF910C941004CF910895A4
:1003900085EB91E00E94C703811102C00C947E019D
:1003A000089581E00C947E0190917701913069F07D
:1003B00020F0923009F076C05CC0813011F41092C8
:1003C000780181E08093770129C081116BC0809111
:1003D00079010E94830725E0829FC00111248D9737
:1003E0000CF41CC0809179010E94830725E0829F54
:1003F000C0011124853B9105ACF082E08093770128
:1004000061E0809178010E9431048093780163E576
:1004100072E084E20E948B0680937A0180917901D8
:100420000C949007809179010E94830725E0829FB8
:10043000C0011124843B9105ACF5809179010E94A3
:10044000830725E0829FC00111248D975CF182E033
:100450008093770163E572E084E20E948B068093CB
:100460007A0160E0809178010E94310480937801E4
:100470000895813051F480937701809179010E9431
:10048000900780917A010C949006823059F4109272
:100490007701809178010E946C04682F8BE791E0CE
:1004A0000C94E603089582E00C94D4011F920F92FD
:1004B0000FB60F9211242F933F934F935F936F9337
:1004C0007F938F939F93AF93BF93EF93FF9310927C
:1004D0006E0110926F0123C0811105C08AE08A95D8
:1004E000F1F700C006C08130C9F385E18A95F1F7C4
:1004F00000006091700170917101809172010E9401
:10050000790390916E01882311F09F5F01C0915093
:1005100090936E0180916F018F5F80936F01809146
:100520006F018330CCF280916E01181694F48091A3
:100530007301813011F560917401709175018091A2
:1005400076010E94920381E00E94D401109273010F
:1005500014C0882391F08091730181110EC06091C5
:10056000740170917501809176010E94920380E080
:100570000E94D40181E080937301E09AFF91EF9192
:10058000BF91AF919F918F917F916F915F914F91AB
:100590003F912F910F900FBE0F901F9018950E94C2
:1005A00031060E94A10488E991E00E94C1038BE713
:1005B00091E00E94C1030E944F0780937901E9E610
:1005C000F0E080818D7F8083808181608083E89AE4
:1005D00040E062E08BE290E00E943D036093700196
:1005E000709371018093720141E065E085E290E0D3
:1005F0000E943D03609374017093750180937601AE
:1006000081E0809373011092770108958BE791E068
:100610000E94C70391E089270895CF930E940603A3
:100620008823E1F38BE791E00E942504C82F8BE734
:1006300091E00E9410048C2FCF910895CF93DF9307
:100640001F92CDB7DEB7682F85EB91E069830E94DA
:10065000C7036981882351F085EB91E00E94E6038E
:1006600080E00F90DF91CF910C947E0185EB91E0BB
:100670000F90DF91CF910C94E603FC01862F41117E
:100680000CC0918121E030E0062E01C0220F0A94B7
:10069000EAF72095292321830CC0413051F4DF0172
:1006A0009E9121E030E001C0220F6A95EAF7922B7B
:1006B0009C93BF010895FB01DB0111972C9130E061
:1006C000082E02C0359527950A94E2F720FF10C046
:1006D000908121E030E0082E01C0220F0A94EAF751
:1006E000442319F0922B9083089520952923208389
:1006F0000895FB0131974081FB013297208150E042
:10070000082E02C0559547950A94E2F740FD08C0AF
:1007100030E002C0359527958A95E2F7922F9170C7
:10072000892F0895FB01DB0111972C9130E0082EF1
:1007300002C0359527950A94E2F720FF0FC020816B
:1007400030E0082E02C0359527950A94E2F720FD87
:1007500002C041E001C040E00C945B030895FC013D
:10076000A081B1812E9181E090E0028002C0880FCB
:10077000991F0A94E2F7809582238C93118210824C
:100780000895FC01128E118E148E138E0895FC01B3
:1007900081E0418D528D238D348D4217530709F02E
:1007A00080E00895FC01438D548D218D328D4831B8
:1007B000510521F481E0232B41F006C04F5F5F4FCC
:1007C00081E02417350709F080E00895EF92FF9249
:1007D0001F93CF93DF931F92CDB7DEB77C011FB776
:1007E000F89469830E94D2036981811111C0F701D5
:1007F000838D948DE80FF91F60838831910521F472
:10080000F701148E138E04C00196F701948F838F25
:100810001FBF0F90DF91CF911F91FF90EF90089530
:10082000FC014FB7F894818D928D238D348D821702
:10083000930749F08831910519F4128E118E03C087
:100840000196928F818F4FBF08952FB7F894DC01E6
:100850005996ED91FC915A97E80FF91F80812FBFAF
:100860000895982F97709530C0F4492F4F5F887F77
:10087000482B892F90E027E030E0281B390B81E0DE
:1008800090E0022E01C0880F0A94EAF7611103C0BC
:10089000809584230895842B089580E00895982FEF
:1008A000977020E830E002C0359527959A95E2F7D9
:1008B000682F70E8822F0895FC0121819081922396
:1008C00081E009F480E026952183089591E0781372
:1008D00001C090E0892F0895982F20E031E0F901C0
:1008E0008E2F821B41914913FBCF843251F0982FF8
:1008F0009A519B3010F48A5E08958A3124F48F5BFC
:10090000089580E2089580E00895813434F09927B5
:1009100087FD9095815491090DC0803249F0982F40
:1009200090539A3060F4992787FD9095469702C0BE
:1009300084E290E0FC01E050FF4F8081089580E068
:100940000895239A2B98E0EBF0E080818F7B8083E1
:10095000808182608083E1EBF0E08081846080832D
:100960001092B20087E28093B3000895882321F0AB
:100970008091B000806406C01092B2002B988091E4
:10098000B0008F7B8093B0000895CF92EF92FF92DA
:100990000F93FC0111860E94A8070F91FF90EF9022
:1009A000CF900895EF920F931F93CF93DF93EC01B5
:1009B000698761110DC0E12C088119812A813B8171
:1009C0004C815D816E817F8188850E9426080EC0E2
:1009D000613039F5E12C088119812A813B814C81F4
:1009E0005D816E817F8188850E94E407EE24E39417
:1009F000088119812A813B814C815D816E817F81D3
:100A000088850E94260892E0E92E088119812A81B2
:100A10003B814C815D816E817F8188850E942608A3
:100A200044C06230D1F4E12C088119812A813B81D4
:100A30004C815D816E817F8188850E942608EE242D
:100A4000E394088119812A813B814C815D816E810B
:100A50007F8188850E94E407D6CF633031F5E12C91
:100A6000088119812A813B814C815D816E817F8162
:100A700088850E942608EE24E394088119812A8142
:100A80003B814C815D816E817F8188850E94260833
:100A900082E0E82E088119812A813B814C815D81A9
:100AA0006E817F8188850E94E407DF91CF911F913D
:100AB0000F91EF9008950F931F93CF93DF93CDB7CE
:100AC000DEB72A970FB6F894DEBF0FBECDBF892FD1
:100AD0002A960FB6F894DEBF0FBECDBFDF91CF913F
:100AE0001F910F9108951F920F920FB60F9211242C
:100AF0002F933F934F935F936F937F938F939F9326
:100B0000AF93BF93EF93FF936091C60087ED91E0A1
:100B10000E94E603FF91EF91BF91AF919F918F915A
:100B20007F916F915F914F913F912F910F900FBEE9
:100B30000F901F9018951F920F920FB60F921124CD
:100B40002F933F934F935F936F937F938F939F93D5
:100B5000AF93BF93EF93FF9384EF91E00E94C7039D
:100B600081110BC084EF91E00E9425048093C600A0
:100B700084EF91E00E94100405C08091C1008F7D38
:100B80008093C100FF91EF91BF91AF919F918F91A1
:100B90007F916F915F914F913F912F910F900FBE79
:100BA0000F901F90189587E68093C4001092C5009F
:100BB00080E28093C00086E08093C20088E9809341
:100BC000C10087ED91E00E94C10384EF91E00C9495
:100BD000C10384EF91E00E94C7038111FACF109204
:100BE000C4001092C5001092C0001092C200109272
:100BF000C1000895CF9387ED91E00E94C703811152
:100C0000FACF87ED91E00E942504C82F87ED91E08F
:100C10000E9410048C2FCF910895CF93DF93C82F9B
:100C200084EF91E00E94D2038111FACF84EF91E02A
:100C30000E94C703D82F6C2F84EF91E00E94E60337
:100C4000DD2329F08091C10080628093C100DF9193
:100C5000CF91089584EF91E00E94C70391E0892726
:100C6000089580916F008D7F80936F0010928000B7
:100C70008BE08093810081EE94E0909389008093D3
:100C80008800109285001092840010928902E3E19E
:100C9000F2E01082369682E0EB38F807D1F708953B
:100CA000109285001092840090916F009260909352
:100CB0006F0090918100936090938100E3E1F2E0F6
:100CC00020E030E0DF0112979C91911117C09081D4
:100CD000911114C096E0929FF001939FF00D1124A2
:100CE000EF5EFD4F61838383558344838091890246
:100CF0008F5F809389026283822F08952F5F3F4F19
:100D0000369624313105F1F68FEF0895AB01682F47
:100D100080E00C945006AB01682F81E00C945006E3
:100D200096E08902F0011124EF5EFD4F128280915E
:100D3000890281508093890281110AC080916F00DD
:100D40008D7F80936F00809181008C7F80938100E4
:100D500008951F920F920FB60F921124DF92EF9217
:100D6000FF920F931F932F933F934F935F936F9334
:100D70007F938F939F93AF93BF93CF93DF93EF9323
:100D8000FF93109285001092840004E112E083E149
:100D9000E82E82E0F82EC2E1D2E0D12C39C0FE016B
:100DA00031978081F70181111FC08081882331F143
:100DB000888181508883811121C0F8018081EB8175
:100DC000FC81813029F409958D2D0E94900616C072
:100DD000823030F00995F80180818150808301C014
:100DE0000995F701808109C08081882339F0F801D5
:100DF0008081882319F088818F5F8883D3940A5F6C
:100E00001F4FF6E0EF0EF11C269684E1D81651F044
:100E1000809189028111C3CFD11004C01092850046
:100E200010928400FF91EF91DF91CF91BF91AF912C
:100E30009F918F917F916F915F914F913F912F91F2
:100E40001F910F91FF90EF90DF900F900FBE0F90CA
:100E50001F9018950F931F93CF93DF9380916F008E
:100E60008D7F80936F0001E112E0C0E0D0E00AC006
:100E7000F8018081811103C08C2F0E949006219679
:100E80000A5F1F4F8091890290E0C817D90784F349
:100E900010928902DF91CF911F910F9108951092C6
:100EA00085001092840080916F00826080936F00B3
:100EB00080918100836080938100E3E1F2E080E033
:100EC00090E0DF0112972C91211116C02081211191
:100ED00013C026E0289FF001299FF00D1124EF5E3A
:100EE000FD4F91E0908393831182909189029F5FDF
:100EF0009093890212820895019636968431910565
:100F000001F78FEF089596E08902F0011124EF5E5A
:100F1000FD4F8081882311F08181089580E008953C
:100F200096E08902F0011124EF5EFD4F8081882355
:100F300019F0118281E08283089596E08902F00120
:100F40001124EF5EFD4F8081811112820895089572
:100F5000AF92BF92CF92EF92FF920F93CF93DF9316
:100F6000EC01CB01642F590141E00E943D036883ED
:100F700079838A8341E0602FC5010E943D036B8322
:100F80007C838D8341E06C2DC7010E943D036E83FD
:100F90007F838887688179818A8140E00E945B0332
:100FA0006B817C818D8140E00E945B036E817F813B
:100FB000888540E0DF91CF910F91FF90EF90CF9027
:100FC000BF90AF900C945B03EF920F931F93CF935E
:100FD000DF93CDB7DEB729970FB6F894DEBF0FBE0B
:100FE000CDBF09831A832B833C834D835E836F833C
:100FF000788789878E2DE11004C069817A818B8181
:101000000BC0813021F46C817D818E8105C08230DE
:1010100089F46F817885898541E029960FB6F89427
:10102000DEBF0FBECDBFDF91CF911F910F91EF902B
:101030000C945B0329960FB6F894DEBF0FBECDBFAC
:10104000DF91CF911F910F91EF900895EF920F9341
:101050001F93CF93DF93CDB7DEB729970FB6F894E0
:10106000DEBF0FBECDBF09831A832B833C834D8324
:101070005E836F83788789878E2DE11004C0698134
:101080007A818B810BC0813021F46C817D818E81CE
:1010900005C0823089F46F817885898540E0299682
:1010A0000FB6F894DEBF0FBECDBFDF91CF911F9179
:1010B0000F91EF900C945B0329960FB6F894DEBF66
:1010C0000FBECDBFDF91CF911F910F91EF9008958B
:1010D000EF920F931F93CF93DF93CDB7DEB729978E
:1010E0000FB6F894DEBF0FBECDBF09831A832B83E2
:1010F0003C834D835E836F83788789878E2DE110D3
:1011000004C069817A818B810BC0813021F46C81AC
:101110007D818E8105C0823081F46F8178858985DB
:1011200029960FB6F894DEBF0FBECDBFDF91CF91E9
:101130001F910F91EF900C94920329960FB6F8949B
:10114000DEBF0FBECDBFDF91CF911F910F91EF900A
:101150000895EF920F931F93CF93DF93CDB7DEB730
:1011600029970FB6F894DEBF0FBECDBF09831A834F
:101170002B833C834D835E836F83788789878E2D95
:10118000E11004C069817A818B810BC0813021F428
:101190006C817D818E8105C0823081F46F8178857C
:1011A000898529960FB6F894DEBF0FBECDBFDF91BB
:1011B000CF911F910F91EF900C94790329960FB660
:1011C000F894DEBF0FBECDBFDF91CF911F910F917D
:1011D000EF900895CF93DF93CDB7DEB72F970FB67B
:1011E000F894DEBF0FBECDBF0E94D3050E949700CA
:1011F0000E94CF02789485E291E00E9429016FE07D
:10120000CE0101960E94350189818634B1F58A812B
:101210008134C9F480E00E94F700882389F081E0DE
:101220000E94F700882361F08DE291E00E9429017D
:1012300086E40E941E0381E40E941E0380E01AC01F
:1012400082E391E0DACF8234D9F780E00E94F700A0
:101250008823B1F381E00E94F700882389F38DE2AF
:1012600091E00E94290186E40E941E0382E40E940C
:101270001E0381E00E94C200C2CF8F33F9F48A813D
:10128000813499F480E00E94F700813019F48BE3F7
:1012900091E0B3CF80E00E94F700823019F483E43C
:1012A00091E0ABCF8EE491E0A8CF823449F681E0A3
:1012B0000E94F700813059F381E0EDCF823591F43F
:1012C0008DE291E00E94290180E00E94F7008111E7
:1012D00096CF81E00E94F700811191CF0E94E70034
:1012E00082E516C0883409F0ABCF8DE291E00E9410
:1012F000290180E00E94F700882309F480CF81E073
:101300000E94F700882309F47ACF0E94D60088E46F
:101310000E941E0374CF803209F0911104C08052E4
:101320008F55E0F70895992788270895F894FFCFFF
:101330004284A4830124C3040274A344C282E364EC
:10134000D443038123146394B4C4FD7D3D1D0D0576
:1013500085C5E5F55553544152540D0A004F4B0DC8
:101360000A00434F4D4552520D0A00434C4541522D
:101370000D0A00415050524F4143480D0A0053544A
:061380004F500D0A0000B1
:00000001FF
