:100000000C9434000C9435010C9451000C94510064
:100010000C9451000C9451000C9451000C9451001C
:100020000C9451000C9451000C9451000C94DA047F
:100030000C9451000C9451000C9451000C945100FC
:100040000C9451000C9451000C949D030C94C50326
:100050000C9451000C9451000C9451000C945100DC
:100060000C9451000C94510011241FBECFEFD8E026
:10007000DEBFCDBF11E0A0E0B1E0E4ECFBE002C0E8
:1000800005900D92A632B107D9F722E0A6E2B1E0C1
:1000900001C01D92A735B207E1F70E94D4050C9468
:1000A000E0050C94000080E00E948E0362E371E0A2
:1000B00082E10E94BB048093300108959091370142
:1000C000913069F020F0923009F45CC008958130DD
:1000D00011F41092350181E08093370128C081111D
:1000E0006AC0809172010E94BF0525E0829FC00115
:1000F00011248D97E4F0809172010E94BF0525E0E4
:10010000829FC0011124853B9105ACF082E0809371
:10011000370161E0809135010E940D038093350124
:100120006CED70E084E20E94BB0480933601809104
:1001300072010C94B405809172010E94BF0525E004
:10014000829FC0011124843B9105ACF5809172011E
:100150000E94BF0525E0829FC00111248D975CF1AC
:1001600082E0809337016CED70E084E20E94BB0472
:100170008093360160E0809135010E940D038093E9
:1001800035010895813051F48093370180917201D7
:100190000E94B405809136010C94C504823059F454
:1001A00010923701809135010E944803682F85E540
:1001B00091E00C94C202089582E00C945E00CF930B
:1001C000C82F811112C088E391E00E94010380933F
:1001D00034010E945D03809335010E942B036093DC
:1001E000310170933201809333016091310170913C
:1001F0003201809133010E9442038823E1F081E3C0
:1002000091E00E943803811109C0C23000F581E0FD
:100210000E948E0363E570E082E108C0C230B8F44A
:1002200081E00E948E0363E570E086E30E94BB04D8
:10023000809330010CC069E271E084E20E94BB044B
:100240008093300188E391E0CF910C94EC02CF9140
:10025000089588E391E00E94A302811102C00C94EA
:10026000DF00089581E00C94DF001F920F920FB61B
:100270000F9211242F933F934F935F936F937F932C
:100280008F939F93AF93BF93EF93FF9310922E01A1
:1002900010922D0180912D01833014F5823028F4C5
:1002A0008AE08A95F1F700C004C085E18A95F1F7EC
:1002B000000060912A0170912B0180912C010E9415
:1002C000560290912E01882311F09F5F01C091503A
:1002D00090932E0180912D018F5F80932D01DACFB5
:1002E00080912E01181694F480912F01813011F520
:1002F0006091270170912801809129010E946E026E
:1003000081E00E945E0010922F0114C0882391F0BA
:1003100080912F0181110EC06091270170912801F9
:10032000809129010E946E0280E00E945E0081E0BF
:1003300080932F01E09AFF91EF91BF91AF919F9130
:100340008F917F916F915F914F913F912F910F907E
:100350000FBE0F901F9018950E945C040E947903B5
:1003600083E791E00E949D0285E591E00E949D0255
:100370000E947B0580937201E9E6F0E080818D7F29
:100380008083808181608083E89A40E062E08BE234
:1003900090E00E941A0260932A0170932B018093CF
:1003A0002C0141E065E085E290E00E941A02609332
:1003B0002701709328018093290181E080932F0108
:1003C00010923701089585E591E00E94A30291E023
:1003D00089270895CF930E94E3018823E1F385E5FF
:1003E00091E00E940103C82F85E591E00E94EC0294
:1003F0008C2FCF910895CF93DF931F92CDB7DEB7A7
:10040000682F88E391E069830E94A30269818823B1
:1004100051F088E391E00E94C20280E00F90DF91EA
:10042000CF910C94DF0088E391E00F90DF91CF91A2
:100430000C94C202FC01862F41110CC0918121E075
:1004400030E0062E01C0220F0A94EAF720952923F6
:1004500021830CC0413051F4DF019E9121E030E056
:1004600001C0220F6A95EAF7922B9C93BF01089571
:10047000FB01DB0111972C9130E0082E02C035956D
:1004800027950A94E2F720FF10C0908121E030E028
:10049000082E01C0220F0A94EAF7442319F0922B88
:1004A000908308952095292320830895FB01319797
:1004B00040813197208150E0082E02C05595479524
:1004C0000A94E2F740FD08C030E002C03595279558
:1004D0008A95E2F7922F9170892F0895FB01DB0135
:1004E00011972C9130E0082E02C0359527950A947B
:1004F000E2F720FF0FC0208130E0082E02C03595C2
:1005000027950A94E2F720FD02C041E001C040E0D7
:100510000C9438020895FC01A081B1812E9181E0F4
:1005200090E0028002C0880F991F0A94E2F780953C
:1005300082238C93118210820895FC01128E118EF9
:10054000148E138E0895FC0181E0418D528D238D10
:10055000348D4217530709F080E00895FC01438D64
:10056000548D218D328D4831510521F481E0232BAA
:1005700041F006C04F5F5F4F81E02417350709F057
:1005800080E00895EF92FF921F93CF93DF931F9225
:10059000CDB7DEB77C011FB7F89469830E94AE0225
:1005A0006981811111C0F701838D948DE80FF91FC6
:1005B00060838831910521F4F701148E138E04C0F5
:1005C0000196F701948F838F1FBF0F90DF91CF911A
:1005D0001F91FF90EF900895FC014FB7F894818D23
:1005E000928D238D348D8217930729F088319105E0
:1005F00021F4128E118E4FBF08950196928F818F34
:10060000FACF2FB7F894DC015996ED91FC915A97E7
:10061000E80FF91F80812FBF0895982F97709530AC
:10062000C0F441E0490F887F482B892F90E027E0F4
:1006300030E0281B390B81E090E0022E01C0880FCA
:100640000A94EAF7611103C0809584230895842BEE
:10065000089580E00895982F977020E830E002C058
:10066000359527959A95E2F7682F70E8822F0895BF
:10067000FC0121819081922381E009F480E026959C
:100680002183089591E0781301C090E0892F0895A7
:10069000982F20E031E0F9018E2F821B4191491300
:1006A000FBCF843241F096EE980F9B3010F48A5EB7
:1006B00008958F5B089580E20895813434F099277E
:1006C00087FD9095815491090DC0803249F090EDDD
:1006D000980F9A3060F4992787FD9095469702C04D
:1006E00084E290E0FC01E050FF4F8081089580E0BB
:1006F0000895239A2B98E0EBF0E080818F7B808334
:10070000808182608083E1EBF0E08081846080837F
:100710001092B20087E28093B3000895882321F0FD
:100720008091B000806406C01092B2002B98809136
:10073000B0008F7B8093B00008951F920F920FB688
:100740000F9211242F933F934F935F936F937F9357
:100750008F939F93AF93BF93EF93FF936091C600E6
:100760008DEA91E00E94C202FF91EF91BF91AF919B
:100770009F918F917F916F915F914F913F912F91B9
:100780000F900FBE0F901F9018951F920F920FB6EB
:100790000F9211242F933F934F935F936F937F9307
:1007A0008F939F93AF93BF93EF93FF9380E991E073
:1007B0000E94A30281110BC080E991E00E94010315
:1007C0008093C60080E991E00E94EC0205C0809110
:1007D000C1008F7D8093C100FF91EF91BF91AF91D8
:1007E0009F918F917F916F915F914F913F912F9149
:1007F0000F900FBE0F901F90189587E68093C4004E
:100800001092C50080E28093C00086E08093C20011
:1008100088E98093C1008DEA91E00E949D0280E901
:1008200091E00C949D0280E991E00E94A302811165
:10083000FACF1092C4001092C5001092C00010921E
:10084000C2001092C1000895CF938DEA91E00E94FA
:10085000A3028111FACF8DEA91E00E940103C82F13
:100860008DEA91E00E94EC028C2FCF910895CF93F6
:10087000DF93C82F80E991E00E94AE028111FACF88
:1008800080E991E00E94A302D82F6C2F80E991E0CB
:100890000E94C202DD2329F08091C1008062809312
:1008A000C100DF91CF91089580E991E00E94A302F9
:1008B00091E089270895089580916F008D7F80933E
:1008C0006F00809181008860809381008091810019
:1008D000826080938100809181008160809381009B
:1008E00081EE94E0909389008093880010928500B7
:1008F0001092840010925602EBECF1E010823796D1
:1009000082E0E735F807D1F70895909156029111EA
:1009100009C0109285001092840090916F0092603F
:1009200090936F007FB7F894EBECF1E020E030E0BB
:100930009081911117C097E0929FF001939FF00D65
:100940001124E653FE4F6083828354834383909146
:1009500056029F5F909356021582168261837FBF75
:10096000822F08952F5F3F4F37962431310501F7CD
:100970007FBF8FEF0895AB01682F81E00C94850451
:10098000AB01682F80E00C94850497E08902F001A8
:100990001124E653FE4F11828091560281508093BC
:1009A00056021582811105C080916F008D7F809362
:1009B0006F0008951F920F920FB60F921124BF92ED
:1009C000CF92DF92EF92FF920F931F932F933F935B
:1009D0004F935F936F937F938F939F93AF93BF9347
:1009E000CF93DF93EF93FF931092850010928400D2
:1009F0000BEC11E0CAECD1E08CECE82E81E0F82E93
:100A000090EDC92E91E0D92EB12C80915602882309
:100A1000D9F1F8018081882349F188818150888348
:100A2000811124C0F7018081813039F4EB81FC8190
:100A300009958B2D0E94C50419C0823038F0EB81D6
:100A4000FC810995F7018081815008C0F60131973A
:100A50008081882329F0F60180818F5F808303C025
:100A6000EB81FC810995F80180818883B394095F4B
:100A70001F4F2796F7E0EF0EF11C87E0C80ED11C40
:100A8000E4E1BE12C2CF06C0B11004C010928500CE
:100A900010928400FF91EF91DF91CF91BF91AF91C0
:100AA0009F918F917F916F915F914F913F912F9186
:100AB0001F910F91FF90EF90DF90CF90BF900F901C
:100AC0000FBE0F901F901895CF93DF9380916F000A
:100AD0008D7F80936F00C0E0D0E08091560290E05F
:100AE000C817D9072CF48C2F0E94C5042196F5CF86
:100AF000DF91CF91089580915602811109C0109223
:100B000085001092840080916F00826080936F0056
:100B10004FB7F894EBECF1E020E030E0822F9081C9
:100B2000911119C097E0929FF001939FF00D11244D
:100B3000E653FE4F91E09083128295832BE534E0DB
:100B4000348323831682209156022F5F209356020E
:100B500091834FBF08952F5F3F4F37962431310562
:100B6000E9F64FBF8FEF08959FB7F89427E0820210
:100B7000F0011124E653FE4F16829FBF089597E0BF
:100B80008902F0011124E653FE4F868108959FB734
:100B9000F89427E08202F0011124E653FE4F1582FB
:100BA0009FBF08950C94C5040E94AC010E94FD03F0
:100BB00078940E94EA01809326010E943704F9CFBD
:040BC000F894FFCFD7
:100BC4004284A4830124C3040274A344C282E36460
:100BD400D443038123146394B4C4FD7D3D1D0D05EA
:060BE40085C5E5F5550092
:00000001FF
