:100000000C9434000C9446000C9446000C9446006A
:100010000C9446000C9446000C9446000C94460048
:100020000C9446000C9446000C9446000C94560127
:100030000C9446000C9446000C9446000C94460028
:100040000C9446000C9446000C9446000C94460018
:100050000C9446000C9446000C9446000C94460008
:100060000C9446000C94460011241FBECFEFD8E03C
:10007000DEBFCDBF11E0A0E0B1E001C01D92AD3800
:10008000B107E1F70E944E020C94AE020C940000FE
:10009000259A08952D9A08952D9808952D9B0C94D6
:1000A0004A000C944C00FC01862F41110CC0918138
:1000B00021E030E0062E01C0220F0A94EAF72095D5
:1000C000292321830CC0413051F4DF019E9121E0AE
:1000D00030E001C0220F6A95EAF7922B9C93BF0192
:1000E0000895FB01DB0111972C9130E0082E02C02E
:1000F000359527950A94E2F720FF10C0908121E002
:1001000030E0082E01C0220F0A94EAF7442319F0C8
:10011000922B908308952095292320830895FB0135
:1001200031974081FB013297208150E0082E02C0B8
:10013000559547950A94E2F740FD08C030E002C0AB
:10014000359527958A95E2F7922F9170892F08951A
:10015000FB01DB0111972C9130E0082E02C0359590
:1001600027950A94E2F720FF0FC0208130E0082E87
:1001700002C0359527950A94E2F720FD02C041E0C0
:1001800001C040E00C9471000895FC01A081B18190
:100190002E9181E090E0028002C0880F991F0A949E
:1001A000E2F7809582238C9311821082089508953E
:1001B00080916F008D7F80936F00809181008860B7
:1001C0008093810080918100826080938100809182
:1001D000810081608093810081EE94E0909389009A
:1001E00080938800109285001092840010928C01F8
:1001F000E1E0F1E01082379681E0ED38F807D1F7C1
:10020000089590918C01911109C01092850010926F
:10021000840090916F00926090936F009FB7F89464
:10022000E1E0F1E020E030E07081711117C077E08B
:10023000729FF001739FF00D1124E050FF4F608317
:1002400082835483438380918C018F5F80938C01E0
:100250001582168261839FBF822F08952F5F3F4FC3
:1002600037962431310501F79FBF8FEF0895AB0119
:10027000682F80E00C940101AB01682F81E00C94A1
:10028000010197E08902F0011124E050FF4F118233
:1002900080918C01815080938C011582811105C061
:1002A00080916F008D7F80936F0008951F920F9251
:1002B0000FB60F921124BF92CF92DF92EF92FF926E
:1002C0000F931F932F933F934F935F936F937F935E
:1002D0008F939F93AF93BF93CF93DF93EF93FF934E
:1002E000109285001092840001E011E0C0E0D1E09E
:1002F00082E0E82E81E0F82E96E0C92E91E0D92E1A
:10030000B12C3AC0F8018081882349F1888181505D
:100310008883811124C0F7018081813039F4EB8119
:10032000FC8109958B2D0E94410119C0823038F063
:10033000EB81FC810995F7018081815008C0F601AD
:1003400031978081882329F0F60180818F5F808337
:1003500003C0EB81FC810995F80180818883B39407
:10036000095F1F4F2796F7E0EF0EF11C87E0C80EDC
:10037000D11CE4E1BE1651F080918C018111C2CFF5
:10038000B11004C01092850010928400FF91EF918B
:10039000DF91CF91BF91AF919F918F917F916F919D
:1003A0005F914F913F912F911F910F91FF90EF908F
:1003B000DF90CF90BF900F900FBE0F901F901895B9
:1003C000CF93DF9380916F008D7F80936F00C0E0AB
:1003D000D0E004C08C2F0E944101219680918C01B5
:1003E00090E0C817D907B4F3DF91CF9108958091B9
:1003F0008C01811109C010928500109284008091B7
:100400006F00826080936F004FB7F894E1E0F1E0F5
:1004100080E090E02081211119C027E0289FF001A1
:10042000299FF00D1124E050FF4F91E0908312823C
:10043000958327ED30E034832383168220918C014D
:100440002F5F20938C0191834FBF089501963796BB
:1004500084319105F9F64FBF8FEF08959FB7F89457
:1004600027E08202F0011124E050FF4F16829FBF67
:10047000089597E08902F0011124E050FF4F868132
:1004800008959FB7F89427E08202F0011124E0500C
:10049000FF4F15829FBF08950C9441012F923F9208
:1004A0004F926F927F928F92CF92DF92EF92CF9383
:1004B00041E065E08BE290E00E9453001B01482E72
:1004C00041E066E08BE290E00E9453003B01882E01
:1004D00041E067E08BE290E00E9453006B01E82E60
:1004E0000E94D80078940E94F701C82F0E942E0223
:1004F0002FEF84E694E0215080409040E1F700C067
:1005000000008C2F0E943902823161F441E0842D79
:10051000B1010E94710040E0882DB3010E9471007A
:1005200040E00BC040E0842DB1010E94710040E02A
:10053000882DB3010E94710041E08E2DB6010E940A
:10054000710080E090E0CF91EF90DF90CF908F909E
:100550007F906F904F903F902F900895F894FFCF29
:00000001FF
