:100000000C9434000C9451000C9451000C94510049
:100010000C9451000C9451000C9451000C9451001C
:100020000C9451000C9451000C9451000C94550206
:100030000C9451000C9451000C9451000C945100FC
:100040000C9451000C9451000C9451000C945100EC
:100050000C9451000C9451000C9451000C945100DC
:100060000C9451000C94510011241FBECFEFD8E026
:10007000DEBFCDBF11E0A0E0B1E0E2EEF5E002C0EE
:1000800005900D92A632B107D9F721E0A6E2B1E0C2
:1000900001C01D92AE3AB207E1F70E94E2020C9451
:1000A000EF020C94000085B1876F873F11F481E067
:1000B00001C080E00C94D70184B1886284B985B115
:1000C00085B9089580E00E94D70160EC70E082E37A
:1000D0000E943702809326010895CF93C82F811183
:1000E00012C08CE291E00E944E0180932B010E948D
:1000F000A60180932A010E947401609327017093E6
:100100002801809329016091270170912801809135
:1001100029010E948B018823E1F087E291E00E948F
:100120008101811109C0C23000F581E00E94D70130
:1001300062E670E082E308C0C230B8F481E00E9459
:10014000D70162E670E086E90E94370280932601BB
:100150000CC067EB70E086E90E94370280932601AD
:100160008CE291E0CF910C943901CF9108958CE20B
:1001700091E00E94F000811102C00C946D0008957E
:1001800081E00C946D008CE291E00E94EA000E94F4
:10019000E6010C94C201CF93DF931F92CDB7DEB777
:1001A000682F8CE291E069830E94F00069818823C6
:1001B00051F08CE291E00E940F0180E00F90DF91FE
:1001C000CF910C946D008CE291E00F90DF91CF9174
:1001D0000C940F01FC01128E118E148E138E089553
:1001E000FC0181E0418D528D238D348D42175307E0
:1001F00009F080E00895FC01438D548D218D328DEE
:100200004831510521F481E0232B41F006C04F5FB6
:100210005F4F81E02417350709F080E00895EF92E1
:10022000FF921F93CF93DF931F92CDB7DEB77C0170
:100230001FB7F89469830E94FB006981811111C086
:10024000F701838D948DE80FF91F60838831910544
:1002500021F4F701148E138E04C00196F701948FD8
:10026000838F1FBF0F90DF91CF911F91FF90EF9071
:100270000895FC014FB7F894818D928D238D348DB4
:100280008217930729F08831910521F4128E118E7F
:100290004FBF08950196928F818FFACF2FB7F894B0
:1002A000DC015996ED91FC915A97E80FF91F808176
:1002B0002FBF0895282F277030E0253031059CF49A
:1002C000482F50E0409550954770552721E030E089
:1002D000042E01C0220F0A94EAF7611103C0209591
:1002E00082230895822B0895982F977020E830E09C
:1002F00002C0359527959A95E2F7682F70E8822F0E
:100300000895FC0121819081922381E009F480E02D
:1003100026952183089591E0781301C090E0892FFC
:100320000895982F20E031E0F9018E2F821B419132
:100330004913FBCF843241F096EE980F9B3010F4B6
:100340008A5E08958F5B089580E20895813434F0C9
:10035000992787FD9095815491090DC0803249F00D
:1003600090ED980F9A3060F4992787FD9095469705
:1003700002C084E290E0FC01E050FF4F80810895CC
:1003800080E00895239A2B98E0EBF0E080818F7B4A
:100390008083808182608083E1EBF0E080818460F3
:1003A00080831092B20087E28093B300089588237F
:1003B00021F08091B000806406C01092B2002B98AA
:1003C0008091B0008F7B8093B000089580916F0082
:1003D0008D7F80936F0080E4809380008BE080931A
:1003E000810084EC99E090938900809388001092BA
:1003F0008500109284001092AD01EBE4F1E0DF0182
:1004000012971C9211961C921082359681E0EF3A59
:10041000F807A9F708951092850010928400909132
:100420006F00926090936F00EAE4F1E020E030E02A
:100430009081911114C095E0929FF001939FF00D6F
:100440001124E75BFE4F6083828354834383809152
:10045000AD018F5F8093AD016183822F08952F5F7F
:100460003F4F35962431310519F78FEF0895AB01D1
:10047000682F81E00C940B02AB01682F80E00C9494
:100480000B0295E08902F0011124E75BFE4F118217
:100490008091AD0181508093AD01811105C08091A3
:1004A0006F008D7F80936F0008951F920F920FB69B
:1004B0000F921124DF92EF92FF920F931F932F93CD
:1004C0003F934F935F936F937F938F939F93AF93DC
:1004D000BF93CF93DF93EF93FF9310928500109219
:1004E00084008AE4E82E81E0F82EC9E4D1E00BE430
:1004F00011E0D12C8091AD01882379F1D7018C9145
:10050000882301F188818150888381111BC0F80103
:1005100080810180F281E02D813029F409958D2DB3
:100520000E9441020CC0823048F00995D8018C919C
:1005300081508C93F7018081888301C00995D70190
:100540008C918883D394B5E0EB0EF11C25960B5F5C
:100550001F4FE4E1DE12CECF06C0D11004C01092CE
:10056000850010928400FF91EF91DF91CF91BF91B0
:10057000AF919F918F917F916F915F914F913F913B
:100580002F911F910F91FF90EF90DF900F900FBE72
:100590000F901F901895CF93DF9380916F008D7F00
:1005A00080936F00C0E0D0E08091AD0190E0C8176B
:1005B000D9072CF48C2F0E9441022196F5CFDF91B0
:1005C000CF9108950E945C000E94C3000E94C20166
:1005D000789463E570E08EE10E943C02FFCFF894CE
:0205E000FFCF4B
:1005E2004284A4830124C3040274A344C282E36448
:1005F200D443038123146394B4C4FD7D3D1D0D05D2
:0606020085C5E5F5550079
:00000001FF
