:100000000C9434000C9451000C9451000C94510049
:100010000C9451000C9451000C9451000C9451001C
:100020000C9451000C9451000C9451000C94420219
:100030000C9451000C9451000C9451000C945100FC
:100040000C9451000C9451000C9451000C945100EC
:100050000C9451000C9451000C9451000C945100DC
:100060000C9451000C94510011241FBECFEFD8E026
:10007000DEBFCDBF11E0A0E0B1E0ECEBF5E002C0E7
:1000800005900D92A632B107D9F721E0A6E2B1E0C2
:1000900001C01D92AC3AB207E1F70E94D5020C9460
:1000A000DC020C94000080E00E94C4016DEA70E064
:1000B00082E30E942102809329010895CF93C82FE3
:1000C00081110EC08AE291E00E943B010E949301DF
:1000D0000E9461016093260170932701809328019B
:1000E0006091260170912701809128010E9478017A
:1000F0008823E1F086E291E00E946E01811109C03F
:10010000C23000F581E00E94C40163E570E082E343
:1001100008C0C230B8F481E00E94C40163E570E019
:1001200086E90E942102809329010CC064EA70E0F4
:1001300084E60E942102809329018AE291E0CF9116
:100140000C942601CF9108958AE291E00E94DD008F
:10015000811102C00C945E00089581E00C945E0051
:100160000E94D3010E94AF018AE291E00C94D70073
:10017000CF93DF931F92CDB7DEB7682F8AE291E06D
:1001800069830E94DD006981882351F08AE291E051
:100190000E94FC0080E00F90DF91CF910C945E00F4
:1001A0008AE291E00F90DF91CF910C94FC00FC016A
:1001B000128E118E148E138E0895FC0181E0418DF4
:1001C000528D238D348D4217530709F080E0089536
:1001D000FC01438D548D218D328D4831510521F420
:1001E00081E0232B41F006C04F5F5F4F81E0241771
:1001F000350709F080E00895EF92FF921F93CF93A7
:10020000DF931F92CDB7DEB77C011FB7F8946983E7
:100210000E94E8006981811111C0F701838D948DDE
:10022000E80FF91F60838831910521F4F701148EDE
:10023000138E04C00196F701948F838F1FBF0F9018
:10024000DF91CF911F91FF90EF900895FC014FB780
:10025000F894818D928D238D348D8217930729F028
:100260008831910521F4128E118E4FBF08950196A9
:10027000928F818FFACF2FB7F894DC015996ED91C8
:10028000FC915A97E80FF91F80812FBF0895282FFE
:10029000277030E0253031059CF4482F50E0409520
:1002A00050954770552721E030E0042E01C0220F01
:1002B0000A94EAF7611103C0209582230895822BE6
:1002C0000895982F977020E830E002C03595279563
:1002D0009A95E2F7682F70E8822F0895FC0121813A
:1002E0009081922381E009F480E02695218308958E
:1002F00091E0781301C090E0892F0895982F20E0B5
:1003000031E0F9018E2F821B41914913FBCF8432DA
:1003100041F096EE980F9B3010F48A5E08958F5B43
:10032000089580E20895813434F0992787FD9095EF
:10033000815491090DC0803249F090ED980F9A30A8
:1003400060F4992787FD9095469702C084E290E07B
:10035000FC01E050FF4F8081089580E00895239ACA
:100360002B98E0EBF0E080818F7B8083808182603E
:100370008083E1EBF0E08081846080831092B200A2
:1003800087E28093B3000895882321F08091B00024
:10039000806406C01092B2002B988091B0008F7BD1
:1003A0008093B000089580E4809380008BE0809378
:1003B000810084EC99E090938900809388001092EA
:1003C0008500109284001092AB01E9E4F1E0DF01B6
:1003D00012971C9211961C921082359681E0ED3A8C
:1003E000F807A9F7089521E030E0309385002093C5
:1003F000840090916F00926090936F00E8E4F1E0C8
:1004000020E030E09081911114C095E0929FF001BE
:10041000939FF00D1124E95BFE4F60838283548328
:1004200043838091AB018F5F8093AB016183822F07
:1004300008952F5F3F4F35962431310519F78FEF1F
:100440000895AB01682F81E00C94F301AB01682F94
:1004500080E00C94F30195E08902F0011124E95B3E
:10046000FE4F11828091AB0181508093AB018111CD
:1004700008C088E08093810080916F008D7F809319
:100480006F0008951F920F920FB60F921124CF9212
:10049000DF92EF92FF920F931F932F933F934F930F
:1004A0005F936F937F938F939F93AF93BF93CF93FC
:1004B000DF93EF93FF931092850010928400C7E4BE
:1004C000D1E009E411E088E4E82E81E0F82EC12CA7
:1004D000D12C8091AB01882379F1D7018C918823AD
:1004E000E9F0888181508883811118C0F8018081EA
:1004F000813021F48C2D0E942B020AC0823028F01A
:1005000081508083F701808102C0D7018C9188835C
:10051000D8011196ED91FC9112970995BFEFCB1A76
:10052000DB0A25960B5F1F4FE5E0EE0EF11CF4E1B0
:10053000CF16D10471F606C0CD2821F410928500A3
:1005400010928400FF91EF91DF91CF91BF91AF9115
:100550009F918F917F916F915F914F913F912F91DB
:100560001F910F91FF90EF90DF90CF900F900FBEF3
:100570000F901F901895CF93DF9380916F008D7F20
:1005800080936F00C0E0D0E08091AB0190E0C8178D
:10059000D9072CF48C2F0E942B022196F5CF88E0EE
:1005A00080938100DF91CF9108950E94B0007894EC
:0C05B00080E30E94B800FFCFF894FFCF5A
:1005BC004284A4830124C3040274A344C282E3646E
:1005CC00D443038123146394B4C4FD7D3D1D0D05F8
:0605DC0085C5E5F55500A0
:00000001FF
