:100000000C9434000C9451000C9451000C94510049
:100010000C9451000C9451000C9451000C9451001C
:100020000C9451000C9451000C9451000C94420219
:100030000C9451000C9451000C9451000C945100FC
:100040000C9451000C9451000C9491000C94B90044
:100050000C9451000C9451000C9451000C945100DC
:100060000C9451000C94510011241FBECFEFD8E026
:10007000DEBFCDBF11E0A0E0B1E0E6EBFBE002C0E7
:1000800005900D92A033B107D9F721E0A0E3B1E0CC
:1000900001C01D92A138B207E1F70E9444050C94FB
:1000A000D9050C940000CF93DF93EC01899188234C
:1000B00019F00E942B01FACFDF91CF910895BF92E2
:1000C000CF92DF92EF92FF920F931F93CF93DF9324
:1000D0006C017C01C0E0D0E0062F10E00E94180106
:1000E000B82E992787FD90950E94CE05892B51F057
:1000F000C017D10739F0F701B1927F012196C017DF
:10010000D10761F7F601E00FF11F1082CE01DF91F8
:10011000CF911F910F91FF90EF90DF90CF90BF9004
:1001200008951F920F920FB60F9211242F933F93B1
:100130004F935F936F937F938F939F93AF93BF93EF
:10014000EF93FF936091C6008DE491E00E947401EB
:10015000FF91EF91BF91AF919F918F917F916F919F
:100160005F914F913F912F910F900FBE0F901F9075
:1001700018951F920F920FB60F9211242F933F9351
:100180004F935F936F937F938F939F93AF93BF939F
:10019000EF93FF9380E391E00E94550181110BC022
:1001A00080E391E00E94B3018093C60080E391E078
:1001B0000E949E0105C08091C1008F7D8093C10087
:1001C000FF91EF91BF91AF919F918F917F916F912F
:1001D0005F914F913F912F910F900FBE0F901F9005
:1001E000189587E68093C4001092C50080E2809342
:1001F000C00086E08093C20088E98093C1008DE44E
:1002000091E00E944F0180E391E00C944F0180E364
:1002100091E00E9455018111FACF1092C400109212
:10022000C5001092C0001092C2001092C100089543
:10023000CF938DE491E00E9455018111FACF8DE4B6
:1002400091E00E94B301C82F8DE491E00E949E01CD
:100250008C2FCF910895CF93DF93C82F80E391E047
:100260000E9460018111FACF80E391E00E94550164
:10027000D82F6C2F80E391E00E947401DD2329F0D8
:100280008091C10080628093C100DF91CF91089579
:1002900080E391E00E94550191E089270895FC01D7
:1002A000128E118E148E138E0895FC0181E0418D03
:1002B000528D238D348D4217530709F080E0089545
:1002C000FC01438D548D218D328D4831510521F42F
:1002D00081E0232B41F006C04F5F5F4F81E0241780
:1002E000350709F080E00895EF92FF921F93CF93B6
:1002F000DF931F92CDB7DEB77C011FB7F8946983F7
:100300000E9460016981811111C0F701838D948D74
:10031000E80FF91F60838831910521F4F701148EED
:10032000138E04C00196F701948F838F1FBF0F9027
:10033000DF91CF911F91FF90EF900895FC014FB78F
:10034000F894818D928D238D348D8217930729F037
:100350008831910521F4128E118E4FBF08950196B8
:10036000928F818FFACF2FB7F894DC015996ED91D7
:10037000FC915A97E80FF91F80812FBF0895FC0167
:10038000862F41110CC0918121E030E0062E01C082
:10039000220F0A94EAF72095292321830CC04130CB
:1003A00051F4DF019E9121E030E001C0220F6A95F7
:1003B000EAF7922B9C93BF010895FB01DB01119793
:1003C0002C9130E0082E02C0359527950A94E2F76B
:1003D00020FF10C0908121E030E0082E01C0220FE4
:1003E0000A94EAF7442319F0922B908308952095FC
:1003F000292320830895FB01319740813197208183
:1004000050E0082E02C0559547950A94E2F740FD4A
:1004100008C030E002C0359527958A95E2F7922F03
:100420009170892F0895FB01DB0111972C9130E029
:10043000082E02C0359527950A94E2F720FF0FC0D9
:10044000208130E0082E02C0359527950A94E2F706
:1004500020FD02C041E001C040E00C94DD010895A0
:10046000FC01A081B1812E9181E090E0028002C068
:10047000880F991F0A94E2F7809582238C9311824A
:10048000108208951F920F920FB60F9211242F938E
:100490003F934F935F936F937F938F939F93AF930C
:1004A000BF93EF93FF9380916B0190916C01803526
:1004B000910539F482E080936A0162E087E791E078
:1004C0000EC08436910571F481E080936A0163E087
:1004D00087E791E00E94A30461E08DE691E00E942D
:1004E000A3041BC0843B910529F483E080936A0137
:1004F00062E0F3CF883C910581F410926A0163E0D9
:100500008DE691E00E94A30461E087E791E00E94FC
:10051000A30410926C0110926B0180916B01909179
:100520006C01019690936C0180936B011092850091
:1005300010928400FF91EF91BF91AF919F918F91A5
:100540007F916F915F914F913F912F910F900FBECF
:100550000F901F901895CF92EF92FF920F9387E024
:10056000C82E9BE2E92EF12C06E02BE230E045E0BC
:100570006BE270E087E791E00E94960422E0C22ED1
:1005800038E2E32EF12C03E028E230E044E06BE2B5
:1005900070E08DE691E00E949604109280008CE05D
:1005A000809381008AE698E1909389008093880087
:1005B000EFE6F0E080818D7F808384E080936A01A4
:1005C0000F91FF90EF90CF90089590916A01943031
:1005D00079F0811105C0913059F484EB90E004C0AA
:1005E000911106C080E590E090936C0180936B01BF
:1005F000089560E087E791E00E94A30460E08DE643
:1006000091E00E94A30484E080936A01EFE6F0E0A9
:1006100080818D7F808310928500109284000895E0
:1006200010926A0188EC90E090936C0180936B01CA
:10063000EFE6F0E080818260808310928500109266
:10064000840008950F931F93811115C000917701C5
:10065000109178012091790130917A0140917B01CC
:1006600050917C0160917D0170917E0180917F01AC
:100670009091800114C000916D0110916E01209144
:100680006F01309170014091710150917201609140
:1006900073017091740180917501909176010E94AF
:1006A0002C051F910F910895AF92BF92CF92EF92B8
:1006B000FF920F93CF93DF93EC01CB01642F59018D
:1006C00041E00E94BF01688379838A8341E0602F03
:1006D000C5010E94BF016B837C838D8341E06C2D3B
:1006E000C7010E94BF016E837F83888768817981FB
:1006F0008A8140E00E94DD016B817C818D8140E038
:100700000E94DD016E817F81888540E0DF91CF917D
:100710000F91FF90EF90CF90BF90AF900C94DD01C0
:10072000EF920F931F93CF93DF93CDB7DEB7299747
:100730000FB6F894DEBF0FBECDBF09831A832B839B
:100740003C834D835E836F83788789878E2DE1108C
:1007500004C069817A818B810BC0813021F46C8166
:100760007D818E8105C0823089F46F81788589858D
:1007700041E029960FB6F894DEBF0FBECDBFDF91E2
:10078000CF911F910F91EF900C94DD0129960FB638
:10079000F894DEBF0FBECDBFDF91CF911F910F91B7
:1007A000EF900895EF920F931F93CF93DF93CDB700
:1007B000DEB729970FB6F894DEBF0FBECDBF098311
:1007C0001A832B833C834D835E836F83788789876D
:1007D0008E2DE11004C069817A818B810BC081303C
:1007E00021F46C817D818E8105C0823089F46F8116
:1007F0007885898540E029960FB6F894DEBF0FBE54
:10080000CDBFDF91CF911F910F91EF900C94DD013F
:1008100029960FB6F894DEBF0FBECDBFDF91CF9102
:100820001F910F91EF900895EF920F931F93CF9325
:10083000DF93CDB7DEB729970FB6F894DEBF0FBEB2
:10084000CDBF09831A832B833C834D835E836F83E3
:10085000788789878E2DE11004C069817A818B8128
:100860000BC0813021F46C817D818E8105C0823086
:1008700081F46F817885898529960FB6F894DEBF5B
:100880000FBECDBFDF91CF911F910F91EF900C94D0
:10089000130229960FB6F894DEBF0FBECDBFDF91CD
:1008A000CF911F910F91EF900895EF920F931F93A7
:1008B000CF93DF93CDB7DEB729970FB6F894DEBF9D
:1008C0000FBECDBF09831A832B833C834D835E8388
:1008D0006F83788789878E2DE11004C069817A81C2
:1008E0008B810BC0813021F46C817D818E8105C0AC
:1008F000823081F46F817885898529960FB6F894C6
:10090000DEBF0FBECDBFDF91CF911F910F91EF9052
:100910000C94FB0129960FB6F894DEBF0FBECDBF35
:10092000DF91CF911F910F91EF900895CF92EF92A9
:10093000FF920F93FC0111860E9454030F91FF90C8
:10094000EF90CF900895EF920F931F93CF93DF9383
:10095000EC01698761110DC0E12C088119812A81A0
:100960003B814C815D816E817F8188850E94D203AD
:100970000EC0613039F5E12C088119812A813B8153
:100980004C815D816E817F8188850E949003EE2479
:10099000E394088119812A813B814C815D816E81BC
:1009A0007F8188850E94D20392E0E92E0881198117
:1009B0002A813B814C815D816E817F8188850E9487
:1009C000D20344C06230D1F4E12C088119812A811C
:1009D0003B814C815D816E817F8188850E94D2033D
:1009E000EE24E394088119812A813B814C815D8149
:1009F0006E817F8188850E949003D6CF633031F568
:100A0000E12C088119812A813B814C815D816E81B5
:100A10007F8188850E94D203EE24E39408811981A6
:100A20002A813B814C815D816E817F8188850E9416
:100A3000D20382E0E82E088119812A813B814C8112
:100A40005D816E817F8188850E949003DF91CF91C7
:100A50001F910F91EF9008950F931F93CF93DF9302
:100A6000CDB7DEB72A970FB6F894DEBF0FBECDBF65
:100A7000892F2A960FB6F894DEBF0FBECDBFDF9147
:100A8000CF911F910F910895CF93DF93CDB7DEB72C
:100A90002F970FB6F894DEBF0FBECDBF0E94F100B6
:100AA0000E94AB02789480E090E0892B19F480E0FA
:100AB00091E040C06FE0CE0101960E945F00898105
:100AC000863461F58A81813481F480E00E942203BA
:100AD000882369F081E00E942203882341F088E0A6
:100AE00091E00E94530080E014C0823419F08DE040
:100AF00091E020C080E00E9422038823C1F381E0BE
:100B00000E942203882399F388E091E00E94530019
:100B100081E00E94E50281E090E0C7CF8F3309F5C4
:100B20008A818134A9F480E00E942203813029F473
:100B300086E191E00E945300EECF80E00E94220304
:100B4000823019F48EE191E0F5CF89E291E0F2CFA5
:100B5000823469F681E00E942203813049F381E00A
:100B6000EDCF823589F488E091E00E94530080E067
:100B70000E9422038111CFCF81E00E9422038111C4
:100B8000CACF0E941003C7CF883409F0B0CF88E0E5
:100B900091E00E9453000E94F902BDCF803209F01B
:100BA000911104C080528F55E0F708959927882746
:060BB0000895F894FFCF48
:100BB60053544152540D0A004F4B0D0A00434F4DFA
:100BC6004552520D0A00434C4541520D0A00415010
:100BD60050524F4143480D0A0053544F500D0A00DE
:00000001FF
