:100000000C9434000C943E000C943E000C943E0082
:100010000C943E000C943E000C943E000C943E0068
:100020000C943E000C943E000C943E000C943E0058
:100030000C943E000C943E000C943E000C943E0048
:100040000C943E000C943E000C943E000C943E0038
:100050000C943E000C943E000C943E000C943E0028
:100060000C943E000C943E0011241FBECFEFD8E04C
:10007000DEBFCDBF0E9405020C94B6020C940000B6
:10008000AF92BF92CF92EF92FF920F93CF93DF93F5
:10009000EC01CB01642F590141E00E948201688389
:1000A00079838A8341E0602FC5010E9482016B83BE
:1000B0007C838D8341E06C2DC7010E9482016E8399
:1000C0007F838887688179818A8140E00E94A001CE
:1000D0006B817C818D8140E00E94A0016E817F81D7
:1000E000888540E0DF91CF910F91FF90EF90CF9006
:1000F000BF90AF900C94A001EF920F931F93CF93FA
:10010000DF93CDB7DEB729970FB6F894DEBF0FBEE9
:10011000CDBF09831A832B833C834D835E836F831A
:10012000788789878E2DE11004C069817A818B815F
:100130000BC0813021F46C817D818E8105C08230BD
:1001400089F46F817885898541E029960FB6F89406
:10015000DEBF0FBECDBFDF91CF911F910F91EF900A
:100160000C94A00129960FB6F894DEBF0FBECDBF48
:10017000DF91CF911F910F91EF900895EF920F9320
:100180001F93CF93DF93CDB7DEB729970FB6F894BF
:10019000DEBF0FBECDBF09831A832B833C834D8303
:1001A0005E836F83788789878E2DE11004C0698113
:1001B0007A818B810BC0813021F46C817D818E81AD
:1001C00005C0823089F46F817885898540E0299661
:1001D0000FB6F894DEBF0FBECDBFDF91CF911F9158
:1001E0000F91EF900C94A00129960FB6F894DEBF02
:1001F0000FBECDBFDF91CF911F910F91EF9008956A
:10020000EF920F931F93CF93DF93CDB7DEB729976C
:100210000FB6F894DEBF0FBECDBF09831A832B83C0
:100220003C834D835E836F83788789878E2DE110B1
:1002300004C069817A818B810BC0813021F46C818B
:100240007D818E8105C0823081F46F8178858985BA
:1002500029960FB6F894DEBF0FBECDBFDF91CF91C8
:100260001F910F91EF900C94D60129960FB6F89438
:10027000DEBF0FBECDBFDF91CF911F910F91EF90E9
:100280000895EF920F931F93CF93DF93CDB7DEB70F
:1002900029970FB6F894DEBF0FBECDBF09831A832E
:1002A0002B833C834D835E836F83788789878E2D74
:1002B000E11004C069817A818B810BC0813021F407
:1002C0006C817D818E8105C0823081F46F8178855B
:1002D000898529960FB6F894DEBF0FBECDBFDF919A
:1002E000CF911F910F91EF900C94BE0129960FB6FC
:1002F000F894DEBF0FBECDBFDF91CF911F910F915C
:10030000EF900895FC01862F41110CC0918121E0EE
:1003100030E0062E01C0220F0A94EAF72095292327
:1003200021830CC0413051F4DF019E9121E030E087
:1003300001C0220F6A95EAF7922B9C93BF010895A2
:10034000FB01DB0111972C9130E0082E02C035959E
:1003500027950A94E2F720FF10C0908121E030E059
:10036000082E01C0220F0A94EAF7442319F0922BB9
:10037000908308952095292320830895FB013197C8
:1003800040813197208150E0082E02C05595479555
:100390000A94E2F740FD08C030E002C03595279589
:1003A0008A95E2F7922F9170892F0895FB01DB0166
:1003B00011972C9130E0082E02C0359527950A94AC
:1003C000E2F720FF0FC0208130E0082E02C03595F3
:1003D00027950A94E2F720FD02C041E001C040E009
:1003E0000C94A0010895FC01A081B1812E9181E0BF
:1003F00090E0028002C0880F991F0A94E2F780956E
:1004000082238C93118210820895CF92EF92FF92F3
:100410000F93CF93DF93CDB7DEB7EF970FB6F89476
:10042000DEBF0FBECDBF87E0C82E9BE2E92EF12CC8
:1004300006E02BE230E045E06BE270E0CE01C796CB
:100440000E94400089E0FE01F796DE019E96019031
:100450000D928A95E1F76EA57FA588A941E00E94DB
:10046000A0012FEF89E698E1215080409040E1F70C
:1004700000C0000089E0FE01F796DE01959601902C
:100480000D928A95E1F768A579A58AA541E00E94B9
:10049000A0012FEF89E698E1215080409040E1F7DC
:1004A00000C0000089E0FE01F796DE015C96019035
:1004B0000D928A95E1F76AA17BA18CA141E00E948F
:1004C000A0012FEF89E698E1215080409040E1F7AC
:1004D00000C0000089E0FE01F796DE01539601900E
:1004E0000D928A95E1F76B897C898D8940E00E94A5
:1004F000A0012FEF89E698E1215080409040E1F77C
:1005000000C0000089E0FE01F796DE011A96019016
:100510000D928A95E1F76D857E858F850E94D601C3
:100520002FEF89E698E1215080409040E1F700C02C
:10053000000089E0FE01F796DE01119601900D9210
:100540008A95E1F76F81788589850E94D60180E0E0
:1005500090E0EF960FB6F894DEBF0FBECDBFDF91EF
:10056000CF910F91FF90EF90CF900895F894FFCF27
:00000001FF
