:100000000C9434000C943E000C943E000C943E0082
:100010000C943E000C943E000C943E000C943E0068
:100020000C943E000C943E000C943E000C943E0058
:100030000C943E000C943E000C943E000C943E0048
:100040000C943E000C943E000C943E000C943E0038
:100050000C943E000C943E000C943E000C943E0028
:100060000C943E000C943E0011241FBECFEFD8E04C
:10007000DEBFCDBF0E9434010C9487010C940000B8
:10008000FC0116821582148213820895FC0181E01E
:1000900043815481258136814217530709F080E05E
:1000A0000895FC01458156812381348142305105F8
:1000B00019F4232B49F008954F5F5F4F81E0241717
:1000C000350719F080E0089581E00895EF92FF92DE
:1000D0001F93CF93DF931F92CDB7DEB77C011FB77D
:1000E000F89469830E9451006981811111C0F70160
:1000F00085819681E80FF91F60838230910521F494
:10010000F7011682158204C00196F7019683858354
:100110001FBF0F90DF91CF911F91FF90EF90089537
:10012000FC014FB7F8948381948125813681821731
:10013000930729F08230910521F4148213824FBF76
:100140000895019694838383FACF2FB7F894DC0146
:100150001396ED91FC911497E80FF91F80812FBF42
:100160000895FC01862F41110CC0918121E030E0FF
:10017000062E01C0220F0A94EAF720952923218335
:100180000CC0413051F4DF019E9121E030E001C00C
:10019000220F6A95EAF7922B9C93BF010895FB0109
:1001A000DB0111972C9130E0082E02C03595279580
:1001B0000A94E2F720FF10C0908121E030E0082E81
:1001C00001C0220F0A94EAF7442319F0922B90837E
:1001D00008952095292320830895FB0131974081BC
:1001E0003197208150E0082E02C0559547950A941A
:1001F000E2F740FD08C030E002C0359527958A95AA
:10020000E2F7922F9170892F0895FB01DB0111977E
:100210002C9130E0082E02C0359527950A94E2F71C
:1002200020FF0FC0208130E0082E02C035952795B1
:100230000A94E2F720FD02C041E001C040E00C94C6
:10024000CF000895FC01A081B1812E9181E090E062
:10025000028002C0880F991F0A94E2F780958223DA
:100260008C931182108208956F927F928F92CF9219
:10027000DF92EF92CF93DF93CDB7DEB727970FB61C
:10028000F894DEBF0FBECDBF1F821E821D821C826E
:1002900041E065E08BE290E00E94B1006B01E82E46
:1002A00041E066E08BE290E00E94B1003B01882EC5
:1002B00061E6CE0101960E94660062E6CE010196DB
:1002C0000E946600CE0101960E94900063E6CE0176
:1002D00001960E9466008C8141E0833619F48E2DD0
:1002E000B60102C0882DB3010E94CF0080E090E0EB
:1002F00027960FB6F894DEBF0FBECDBFDF91CF912A
:10030000EF90DF90CF908F907F906F900895F8944A
:02031000FFCF1D
:00000001FF
