:100000000C9434000C943E000C943E000C943E0082
:100010000C943E000C943E000C943E000C943E0068
:100020000C943E000C943E000C943E000C943E0058
:100030000C943E000C943E000C943E000C943E0048
:100040000C943E000C943E000C943E000C943E0038
:100050000C943E000C943E000C943E000C943E0028
:100060000C943E000C943E0011241FBECFEFD8E04C
:10007000DEBFCDBF0E94B3020C940E030C940000AF
:10008000CF92EF92FF920F93FC0111860E94EE0037
:100090000F91FF90EF90CF900895EF920F931F93E1
:1000A000CF93DF93EC01698761110DC0E12C0881CA
:1000B00019812A813B814C815D816E817F81888598
:1000C0000E946C010EC0613039F5E12C0881198164
:1000D0002A813B814C815D816E817F8188850E9470
:1000E0002A01EE24E394088119812A813B814C8105
:1000F0005D816E817F8188850E946C0192E0E92E8E
:10010000088119812A813B814C815D816E817F81CB
:1001100088850E946C0144C06230D1F4E12C0881D2
:1001200019812A813B814C815D816E817F81888527
:100130000E946C01EE24E394088119812A813B819D
:100140004C815D816E817F8188850E942A01D6CF96
:10015000633031F5E12C088119812A813B814C8182
:100160005D816E817F8188850E946C01EE24E3941D
:10017000088119812A813B814C815D816E817F815B
:1001800088850E946C0182E0E82E088119812A810D
:100190003B814C815D816E817F8188850E942A012F
:1001A000DF91CF911F910F91EF9008950F931F93BF
:1001B000CF93DF93CDB7DEB72A970FB6F894DEBFA3
:1001C0000FBECDBF892F2A960FB6F894DEBF0FBEA3
:1001D000CDBFDF91CF911F910F910895AF92BF9244
:1001E000CF92EF92FF920F93CF93DF93EC01CB016D
:1001F000642F590141E00E943002688379838A8329
:1002000041E0602FC5010E9430026B837C838D83A7
:1002100041E06C2DC7010E9430026E837F83888786
:10022000688179818A8140E00E944E026B817C81E5
:100230008D8140E00E944E026E817F81888540E082
:10024000DF91CF910F91FF90EF90CF90BF90AF9043
:100250000C944E02EF920F931F93CF93DF93CDB781
:10026000DEB729970FB6F894DEBF0FBECDBF098366
:100270001A832B833C834D835E836F8378878987C2
:100280008E2DE11004C069817A818B810BC0813091
:1002900021F46C817D818E8105C0823089F46F816B
:1002A0007885898541E029960FB6F894DEBF0FBEA8
:1002B000CDBFDF91CF911F910F91EF900C944E0223
:1002C00029960FB6F894DEBF0FBECDBFDF91CF9158
:1002D0001F910F91EF900895EF920F931F93CF937B
:1002E000DF93CDB7DEB729970FB6F894DEBF0FBE08
:1002F000CDBF09831A832B833C834D835E836F8339
:10030000788789878E2DE11004C069817A818B817D
:100310000BC0813021F46C817D818E8105C08230DB
:1003200089F46F817885898540E029960FB6F89425
:10033000DEBF0FBECDBFDF91CF911F910F91EF9028
:100340000C944E0229960FB6F894DEBF0FBECDBFB7
:10035000DF91CF911F910F91EF900895EF920F933E
:100360001F93CF93DF93CDB7DEB729970FB6F894DD
:10037000DEBF0FBECDBF09831A832B833C834D8321
:100380005E836F83788789878E2DE11004C0698131
:100390007A818B810BC0813021F46C817D818E81CB
:1003A00005C0823081F46F817885898529960FB6E2
:1003B000F894DEBF0FBECDBFDF91CF911F910F919B
:1003C000EF900C94840229960FB6F894DEBF0FBE0E
:1003D000CDBFDF91CF911F910F91EF900895EF92D4
:1003E0000F931F93CF93DF93CDB7DEB729970FB647
:1003F000F894DEBF0FBECDBF09831A832B833C83E5
:100400004D835E836F83788789878E2DE11004C0CA
:1004100069817A818B810BC0813021F46C817D816F
:100420008E8105C0823081F46F8178858985299617
:100430000FB6F894DEBF0FBECDBFDF91CF911F91F5
:100440000F91EF900C946C0229960FB6F894DEBFD2
:100450000FBECDBFDF91CF911F910F91EF90089507
:10046000FC01862F41110CC0918121E030E0062E65
:1004700001C0220F0A94EAF72095292321830CC09A
:10048000413051F4DF019E9121E030E001C0220FA4
:100490006A95EAF7922B9C93BF010895FB01DB015B
:1004A00011972C9130E0082E02C0359527950A94BB
:1004B000E2F720FF10C0908121E030E0082E01C05B
:1004C000220F0A94EAF7442319F0922B908308959F
:1004D0002095292320830895FB013197408131978E
:1004E000208150E0082E02C0559547950A94E2F706
:1004F00040FD08C030E002C0359527958A95E2F7A7
:10050000922F9170892F0895FB01DB0111972C9197
:1005100030E0082E02C0359527950A94E2F720FFB7
:100520000FC0208130E0082E02C0359527950A942F
:10053000E2F720FD02C041E001C040E00C944E0211
:100540000895FC01A081B1812E9181E090E00280AC
:1005500002C0880F991F0A94E2F7809582238C933A
:10056000118210820895CF92EF92FF920F93CF9352
:10057000DF93CDB7DEB72A970FB6F894DEBF0FBE74
:10058000CDBF27E0C22E3BE2E32EF12C06E02BE2AA
:1005900030E045E06BE270E0CE0101960E94400041
:1005A00061E0CE0101960E944D002FEF83ED90E3B4
:1005B000215080409040E1F700C0000060E0CE0193
:1005C00001960E944D002FEF83ED90E32150804073
:1005D0009040E1F700C0000062E0CE0101960E9469
:1005E0004D002FEF83ED90E3215080409040E1F7E4
:1005F00000C0000063E0CE0101960E944D0080E043
:1006000090E02A960FB6F894DEBF0FBECDBFDF9103
:10061000CF910F91FF90EF90CF900895F894FFCF76
:00000001FF
