:100000000C9434000C9446000C9446000C9446006A
:100010000C9446000C9446000C9446000C94460048
:100020000C9446000C9446000C9446000C94460038
:100030000C9446000C9446000C9446000C94460028
:100040000C9446000C9446000C9448000C947000EC
:100050000C9446000C9446000C9446000C94460008
:100060000C9446000C94460011241FBECFEFD8E03C
:10007000DEBFCDBF21E0A0E0B1E001C01D92AA33F8
:10008000B207E1F70E9477010C947F010C94000005
:100090001F920F920FB60F9211242F933F934F93FD
:1000A0005F936F937F938F939F93AF93BF93EF93E0
:1000B000FF936091C6008DE191E00E942C01FF91B9
:1000C000EF91BF91AF919F918F917F916F915F91D0
:1000D0004F913F912F910F900FBE0F901F90189549
:1000E0001F920F920FB60F9211242F933F934F93AD
:1000F0005F936F937F938F939F93AF93BF93EF9390
:10010000FF9380E091E00E940C0181110BC080E020
:1001100091E00E946B018093C60080E091E00E9414
:10012000560105C08091C1008F7D8093C100FF9171
:10013000EF91BF91AF919F918F917F916F915F915F
:100140004F913F912F910F900FBE0F901F901895D8
:1001500087E68093C4001092C50080E28093C000BF
:1001600086E08093C20088E98093C1008DE191E030
:100170000E94060180E091E00C94060180E091E08D
:100180000E940C018111FACF1092C4001092C50098
:100190001092C0001092C2001092C1000895CF9337
:1001A0008DE191E00E940C018111FACF8DE191E087
:1001B0000E946B01C82F8DE191E00E9456018C2FA7
:1001C000CF910895CF93DF93C82F80E091E00E94F4
:1001D00017018111FACF80E091E00E940C01D82F25
:1001E0006C2F80E091E00E942C01DD2329F08091AA
:1001F000C10080628093C100DF91CF91089580E0BB
:1002000091E00E940C0191E089270895FC01148E71
:10021000138E128E118E0895FC0181E0418D528D56
:10022000238D348D4217530709F080E00895FC01B7
:10023000438D548D218D328D4831510519F4232B76
:1002400049F008954F5F5F4F81E02417350719F09B
:1002500080E0089581E00895EF92FF921F93CF937D
:10026000DF931F92CDB7DEB77C011FB7F894698387
:100270000E9417016981811111C0F701838D948D4E
:10028000E80FF91F60838831910521F4F701148E7E
:10029000138E04C00196F701948F838F1FBF0F90B8
:1002A000DF91CF911F91FF90EF900895FC014FB720
:1002B000F894818D928D238D348D8217930729F0C8
:1002C0008831910521F4128E118E4FBF0895019649
:1002D000928F818FFACF2FB7F894DC015996ED9168
:1002E000FC915A97E80FF91F80812FBF08950E9453
:1002F000A80078940E94CF000E94E200FBCFF894FF
:02030000FFCF2D
:00000001FF
