:100000000C9434000C943E000C943E000C943E0082
:100010000C943E000C943E000C943E000C943E0068
:100020000C943E000C943E000C943E000C943E0058
:100030000C943E000C943E000C943E000C943E0048
:100040000C943E000C943E000C943E000C943E0038
:100050000C943E000C943E000C943E000C943E0028
:100060000C943E000C943E0011241FBECFEFD8E04C
:10007000DEBFCDBF0E94B1000C94C5000C940000FF
:10008000FC01862F41110CC0918121E030E0062E49
:1000900001C0220F0A94EAF72095292321830CC07E
:1000A000413051F4DF019E9121E030E001C0220F88
:1000B0006A95EAF7922B9C93BF010895FB01DB013F
:1000C00011972C9130E0082E02C0359527950A949F
:1000D000E2F720FF10C0908121E030E0082E01C03F
:1000E000220F0A94EAF7442319F0922B9083089583
:1000F0002095292320830895FB0131974081319772
:10010000208150E0082E02C0559547950A94E2F7E9
:1001100040FD08C030E002C0359527958A95E2F78A
:10012000922F9170892F0895FB01DB0111972C917B
:1001300030E0082E02C0359527950A94E2F720FF9B
:100140000FC0208130E0082E02C0359527950A9413
:10015000E2F720FD02C041E001C040E00C945E00E7
:1001600008956598259A6BE270E085E00E947C0016
:10017000882311F041E001C040E065E270E085E0D5
:0E0180000E945E0080E090E00895F894FFCFAA
:00000001FF
